:1000000009C016C015C014C013C012C03CC010C037
:100010000FC00EC011241FBECFE9CDBF10E0A0E677
:10002000B0E001C01D92AE36B107E1F7A5D0E2C045
:10003000E7CFBA9AC29A08958CE384BB82E086B96E
:1000400083E487B986B1806C86B986E990E0019730
:10005000F1F7369A3699FECF84B195B1909361004D
:1000600080936000089585E083BF82E08FBD83ECBC
:1000700086BF84E089BF0895C29884E991E1019721
:10008000F1F7C29A08951F920F920FB60F921124A2
:10009000EF92FF920F931F932F933F934F935F9392
:1000A0006F937F938F939F93AF93BF93EF93FF9340
:1000B0003699FECF04B115B1609160007091610076
:1000C000600F711F80E090E020916A0030916B001A
:1000D00040916C0050916D0074D09B01AC018091F7
:1000E000660090916700A0916800B0916900280FA8
:1000F000391F4A1F5B1F20936600309367004093AF
:100100006800509369001093610000936000E090D4
:100110006200F090630000916400109165002E155C
:100120003F054007510790F0C29884E991E101979B
:10013000F1F7C29A2E193F09400B510B209366002C
:10014000309367004093680050936900369AFF919E
:10015000EF91BF91AF919F918F917F916F915F913F
:100160004F913F912F911F910F91FF90EF900F9022
:100170000FBE0F901F9018955FDF85E083BF82E070
:100180008FBD83EC86BF84E089BFBA9AC29A8DE4A2
:1001900097E0A0E0B0E080936A0090936B00A0939A
:1001A0006C00B0936D0080E89EEEA6E3B0E0809313
:1001B000620090936300A0936400B093650078940C
:1001C000FFCFFF27EE27BB27AA2760FF04C0A20F9F
:1001D000B31FE41FF51F220F331F441F551F9695B1
:1001E00087957795679589F70097760771F7CF011F
:0801F000BD010895F894FFCF52
:00000001FF
