:1000000009C016C015C014C013C012C048C010C02B
:100010000FC00EC011241FBECFE9CDBF10E0A0E677
:10002000B0E001C01D92AE36B107E1F78CD002C13D
:10003000E7CFBA9AC29A08958CE384BB82E086B96E
:1000400083E487B986B1806C86B98CE291E0019730
:10005000F1F7369A3699FECF84B195B1909361004D
:1000600080936000089582E083BF8FBD86E986BFDC
:1000700084E089BF089598B321E030E002C0220FE8
:10008000331F8A95E2F7822F8095892388BB88E207
:1000900093E20197F1F788B3282B28BB08951F92AC
:1000A0000F920FB60F9211240F931F932F933F932C
:1000B0004F935F936F937F938F939F93AF93BF9370
:1000C000EF93FF933699FECF04B115B160916000B4
:1000D00070916100600F711F80E090E020916A00D4
:1000E00030916B0040916C0050916D008AD020914E
:1000F0006600309167004091680050916900260FBA
:10010000371F481F591F20936600309367004093A4
:100110006800509369001093610000936000369A64
:10012000FF91EF91BF91AF919F918F917F916F91CF
:100130005F914F913F912F911F910F910F900FBEA3
:100140000F901F901895CF93DF9376DF82E083BFE7
:100150008FBD86E986BF84E089BFBA9AC29A85E0DE
:1001600090E0A0E0B0E080936A0090936B00A093D1
:100170006C00B0936D0080E89EEEA6E3B0E0809343
:10018000620090936300A0936400B093650078943C
:10019000CCE2D1E020916600309167004091680088
:1001A000509169008091620090916300A091640079
:1001B000B0916500281739074A075B07F0F082E025
:1001C0005ADF8091660090916700A0916800B0911D
:1001D0006900209162003091630040916400509169
:1001E0006500821B930BA40BB50B80936600909364
:1001F0006700A0936800B0936900CE010197F1F702
:10020000C9CFFF27EE27BB27AA2760FF04C0A20F94
:10021000B31FE41FF51F220F331F441F551F969570
:1002200087957795679589F70097760771F7CF01DE
:08023000BD010895F894FFCF11
:00000001FF
