:1000000012C020C01EC01DC01CC087C01AC019C0AD
:1000100018C017C016C015C014C013C012C011C03C
:1000200010C00FC00EC011241FBECFEDCDBF10E019
:10003000A0E6B0E001C01D92A736B107E1F7B8D045
:1000400052C1DECF1F920F920FB60F9211242F9341
:100050003F934F935F938F939F93AF93BF938CB5D1
:100060009DB51DBC1CBC2091600030916100409189
:10007000620050916300A0E0B0E0820F931FA41FC4
:10008000B51F8093600090936100A0936200B093CD
:100090006300809164008F5F80936400BF91AF9193
:1000A0009F918F915F914F913F912F910F900FBE34
:1000B0000F901F9018959FEF97BB80E481BB98BB72
:1000C00082BB0895893080F448B328E030E0281BD3
:1000D000310981E090E002C0880F991F2A95E2F76C
:1000E0008095842388BB0895893009F496980895F3
:1000F000893078F448B328E030E0281B310981E0EA
:1001000090E002C0880F991F2A95E2F7482B48BB60
:100110000895893009F4969A08951F920F920FB6A8
:100120000F9211242F933F934F935F936F937F937D
:100130008F939F93AF93BF93EF93FF9381E0C2DFC1
:1001400089E0C0DF88E99AE30197F1F781E0D0DF29
:1001500089E0CEDFFF91EF91BF91AF919F918F9199
:100160007F916F915F914F913F912F910F900FBEB3
:100170000F901F9018958FEF88BB80E482BB089585
:10018000893078F448B328E030E0281B310981E059
:1001900090E002C0880F991F2A95E2F7482748BBD4
:1001A0000895893021F482B390E4892782BB0895B1
:1001B0000F931F93CF93DF9385B7826085BF8BB773
:1001C00080648BBF8EB582608EBD89B7806889BF21
:1001D0009FEF97BB80E481BB98BB82BB11E0CCE270
:1001E000D1E0812F6FDF84EC99E0FE013197F1F7C8
:1001F0000197D9F7812F7CDF1F5F1A3091F710929A
:1002000060001092610010926200109263001092E0
:10021000640078941DBC1CBC0FEF10E48091640056
:100220008233E1F76091600070916100809162001B
:10023000909163002091640030E040E050E031D0C4
:100240003093660020936500109264001092600065
:1002500010926100109262001092630008BB12BB02
:100260008091650090916600805395476EE170E043
:1002700004D0862F8B5F26DFD1CFAA1BBB1B51E199
:1002800007C0AA1FBB1FA617B70710F0A61BB70B06
:10029000881F991F5A95A9F780959095BC01CD01AB
:1002A0000895A1E21A2EAA1BBB1BFD010DC0AA1FB7
:1002B000BB1FEE1FFF1FA217B307E407F50720F0CF
:1002C000A21BB30BE40BF50B661F771F881F991F4A
:1002D0001A9469F760957095809590959B01AC0193
:0A02E000BD01CF010895F894FFCF8F
:00000001FF
