:1000000012C062C01EC01DC01CC01CC01AC019C0D6
:1000100018C017C016C015C014C013C012C011C03C
:1000200010C00FC00EC011241FBECFEDCDBF10E019
:10003000A0E6B0E001C01D92A636B107E1F7E3D01B
:1000400055C1DECF1F920F920FB60F9211241DBC27
:100050001CBC0F900FBE0F901F9018959FEF97BB81
:1000600080E481BB98BB82BB0895982F8150883073
:1000700080F448B328E030E0291B310981E090E0AA
:1000800002C0880F991F2A95E2F78095842388BBC8
:100090000895993009F496980895982F81508830E2
:1000A00078F448B328E030E0291B310981E090E082
:1000B00002C0880F991F2A95E2F7482B48BB089584
:1000C000993009F4969A08951F920F920FB60F92E5
:1000D00011240F931F932F933F934F935F936F932D
:1000E0007F938F939F93AF93BF93EF93FF93209151
:1000F00061003091620040916300509164008CB5C2
:100100009DB5A0E0B0E0820F931FA41FB51F8093A0
:10011000610090936200A0936300B09364001DBCE3
:100120001CBC809165008F5F8093650080916500A5
:100130008233C9F560916100709162008091630023
:100140009091640022E330E040E050E099D0C90192
:10015000DA018093610090936200A0936300B093F2
:1001600064002091610030916200409163005091E1
:10017000640020533547C9016EE170E06ED08B01F9
:10018000809160008ADF0B5F1F4F802F6EDF00932E
:100190006000109261001092620010926300109251
:1001A000640010926500FF91EF91BF91AF919F9114
:1001B0008F917F916F915F914F913F912F911F91FF
:1001C0000F910F900FBE0F901F9018958FEF88BB67
:1001D00080E482BB0895893078F448B328E030E0A9
:1001E000281B310981E090E002C0880F991F2A95F1
:1001F000E2F7482748BB0895893021F482B390E4A0
:10020000892782BB08951F93CF93DF9385B78360BF
:1002100085BF8BB780648BBF8EB582608EBD89B77A
:10022000806889BF9FEF97BB80E481BB98BB82BB8E
:1002300011E0CCE2D1E0812F18DF84EC99E0FE01DF
:100240003197F1F70197D9F7812F27DF1F5F1A3018
:1002500091F778941DBC1CBCFFCF97FB092E072695
:100260000AD077FD04D02ED006D000201AF4709565
:1002700061957F4F0895F6F7909581959F4F08956A
:10028000A1E21A2EAA1BBB1BFD010DC0AA1FBB1F9A
:10029000EE1FFF1FA217B307E407F50720F0A21B0C
:1002A000B30BE40BF50B661F771F881F991F1A9479
:1002B00069F760957095809590959B01AC01BD01A3
:1002C000CF010895AA1BBB1B51E107C0AA1FBB1F8A
:1002D000A617B70710F0A61BB70B881F991F5A95D2
:1002E000A9F780959095BC01CD010895F894FFCFB2
:00000001FF
