:10F800000C943E7C0C945B7C0C945B7C0C945B7C39
:10F810000C945B7C0C945B7C0C945B7C0C945B7C0C
:10F820000C945B7C0C945B7C0C945B7C0C945B7CFC
:10F830000C945B7C0C945B7C0C945B7C0C945B7CEC
:10F840000C945B7C0C945B7C0C945B7C0C945B7CDC
:10F850000C945B7C0C945B7C0C945B7C0C945B7CCC
:10F860000C945B7C0C945B7C0C945B7C0C945B7CBC
:10F870000C945B7C0C945B7C0C945B7C11241FBE11
:10F88000CFEFD0E1DEBFCDBF11E0A0E0B1E0E2E319
:10F89000FFEF02C005900D92A230B107D9F712E038
:10F8A000A2E0B1E001C01D92AD30B107E1F70E94C6
:10F8B000337D0C94977F0C94007C982F92959F70C9
:10F8C0009A3018F0292F295A02C0292F205D8F70F5
:10F8D0008A3018F0982F995A02C0982F905D809125
:10F8E000C00085FFFCCF2093C6008091C00085FF3B
:10F8F000FCCF9093C6000895982F8091C00085FF9B
:10F90000FCCF9093C6000895EF92FF920F931F9340
:10F91000EE24FF24870113C00894E11CF11C011D93
:10F92000111D81E4E81682E4F8068FE0080780E004
:10F93000180728F0E0910401F091050109958091E4
:10F94000C00087FFE9CF8091C6001F910F91FF9003
:10F95000EF9008950E94847C982F8091C00085FFCD
:10F96000FCCF9093C600913610F0975503C09033AA
:10F9700008F09053892F08951F930E94AA7C182F96
:10F980000E94AA7C1295107F810F1F9108951F93EA
:10F99000182F03C00E94847C11501123D9F71F91A6
:10F9A00008951F93182F0E94847C8032A9F48091BF
:10F9B000C00085FFFCCF84E18093C6008091C00029
:10F9C00085FFFCCF1093C6008091C00085FFFCCF5F
:10F9D00080E18093C6000CC0809103018F5F80930B
:10F9E0000301853029F4E0910401F09105010995A6
:10F9F0001F9108950E94847C803279F48091C00028
:10FA000085FFFCCF84E18093C6008091C00085FF14
:10FA1000FCCF80E18093C6000895809103018F5F41
:10FA200080930301853029F4E0910401F0910501F0
:10FA30000995089540E951E013C0289A28EE33E073
:10FA4000FA013197F1F721503040D1F7289828EE8C
:10FA500033E0FA013197F1F721503040D1F781506E
:10FA6000882359F708952F923F924F925F926F9299
:10FA70007F928F929F92AF92BF92CF92DF92EF923E
:10FA8000FF920F931F93CF93DF93000083E3809344
:10FA9000C4001092C50088E18093C10086E0809385
:10FAA000C2005098589A209A83E00E941A7D14E16F
:10FAB000812EBEE13B2EA6E92A2EF0E19F2EE0E248
:10FAC0007E2E79E4672E63E5562E50E5452E0E9482
:10FAD000847C803309F462C08133E9F50E94847C20
:10FAE000803209F000C28091C00085FFFCCF809277
:10FAF000C6008091C00085FFFCCF81E48093C600E2
:10FB00008091C00085FFFCCF86E58093C600809180
:10FB1000C00085FFFCCF82E58093C6008091C000C5
:10FB200085FFFCCF7092C6008091C00085FFFCCF9E
:10FB30006092C6008091C00085FFFCCF5092C60045
:10FB40008091C00085FFFCCF4092C6008091C0002C
:10FB500085FFFCCFBFC1803439F40E94847C863895
:10FB6000E8F00E94847C1AC0813499F40E94847C5D
:10FB7000803811F482E0B4C1813811F481E0B0C161
:10FB8000823811F480E1ACC1883909F0A8C183E062
:10FB9000A7C1823431F484E10E94C77C0E94FA7CC0
:10FBA00096CF853411F485E0F7CF8035B9F38235EF
:10FBB000A9F3813599F3853549F40E94847C8093BB
:10FBC00006010E94847C80930701E8CF8635C9F442
:10FBD0000E94847C803389F40E94847C0E94847C0F
:10FBE000182F0E94847C112311F48EE179C1113009
:10FBF00011F486E975C18AE073C183E00E94C77C75
:10FC00006EC1843609F0D1C00E94847C80930902C1
:10FC10000E94847C8093080280910C028E7F8093E6
:10FC20000C020E94847C853429F480910C0281604E
:10FC300080930C0200E010E008C00E94847CF80170
:10FC4000E85FFE4F80830F5F1F4F80910802909105
:10FC500009020817190788F30E94847C803209F092
:10FC600042C180910C0280FF2AC0809106019091D0
:10FC70000701880F991F909307018093060100E008
:10FC800010E015C0F801E85FFE4F809106019091E9
:10FC9000070160810E94897F809106019091070190
:10FCA000019690930701809306010F5F1F4F80918B
:10FCB0000802909109020817190720F36BC0809180
:10FCC00007018823880F880B817080930B02809135
:10FCD000060190910701880F991F90930701809367
:10FCE00006018091080280FF09C08091080290916E
:10FCF000090201969093090280930802F894F999F9
:10FD0000FECF1127E0910601F0910701C8E0D1E094
:10FD10008091080290910902103091F400915700EF
:10FD200001700130D9F303E000935700E89500918A
:10FD3000570001700130D9F301E100935700E895B5
:10FD4000099019900091570001700130D9F301E03A
:10FD500000935700E8951395103898F011270091FB
:10FD6000570001700130D9F305E000935700E89582
:10FD70000091570001700130D9F301E10093570061
:10FD8000E8953296029709F0C7CF103011F002962D
:10FD9000E5CF11248091C00085FFFCCF8092C60082
:10FDA0008091C00085FFFCCF95C0843709F06FC0FB
:10FDB0000E94847C809309020E94847C80930802C4
:10FDC0008091060190910701880F991F9093070178
:10FDD000809306010E94847C90910C02853411F47A
:10FDE000916001C09E7F90930C020E94847C8032BF
:10FDF00009F06DCE8091C00085FFFCCF8092C600D7
:10FE0000C0900802D090090280910C02AA24A39409
:10FE1000A82292E0B92EB822EE24FF2430C0AA20F6
:10FE2000A9F00091060110910701C8010E94817F8D
:10FE3000982F8091C00085FFFCCF9093C6000F5F84
:10FE40001F4F109307010093060116C0BB2059F401
:10FE5000E0910601F091070194918091C00085FF27
:10FE6000FCCF9093C6008091060190910701019606
:10FE700090930701809306010894E11CF11CEC1497
:10FE8000FD0468F28091C00085FFFCCF23C0853758
:10FE900021F50E94847C803231F58091C00085FF7D
:10FEA000FCCF8092C6008091C00085FFFCCF3092CD
:10FEB000C6008091C00085FFFCCF2092C6008091D3
:10FEC000C00085FFFCCF8AE08093C6008091C0000F
:10FED00085FFFCCF9092C600FACD863721F480E0F2
:10FEE0000E94D17CF4CD809103018F5F8093030148
:10FEF000853009F0ECCDE0910401F0910501099500
:10FF0000E6CDF999FECF92BD81BDF89A992780B5CB
:10FF10000895262FF999FECF1FBA92BD81BD20BD4D
:10FF20000FB6F894FA9AF99A0FBE01960895F894CC
:02FF3000FFCF01
:02FF320080004D
:040000030000F80001
:00000001FF
