:10F800000C943E7C0C945B7C0C945B7C0C945B7C39
:10F810000C945B7C0C945B7C0C945B7C0C945B7C0C
:10F820000C945B7C0C945B7C0C945B7C0C945B7CFC
:10F830000C945B7C0C945B7C0C945B7C0C945B7CEC
:10F840000C945B7C0C945B7C0C945B7C0C945B7CDC
:10F850000C945B7C0C945B7C0C945B7C0C945B7CCC
:10F860000C945B7C0C945B7C0C945B7C0C945B7CBC
:10F870000C945B7C0C945B7C0C945B7C11241FBE11
:10F88000CFEFD0E1DEBFCDBF11E0A0E0B1E0E8EE08
:10F89000FDEF02C005900D92A230B107D9F722E02A
:10F8A000A2E0B1E001C01D92AD30B207E1F70E94C5
:10F8B000167D0C94F27E0C94007C9091C00095FF14
:10F8C000FCCF8093C6000895CF93282F22952F70E8
:10F8D0002A3010F0295A01C0205D982F9F70C92F3F
:10F8E0009A3010F0C95A01C0C05D822F0E945D7C21
:10F8F0008C2FCF910C945D7CCF92DF92EF92FF9290
:10F90000C12CD12C760112C08FEFC81AD80AE80A90
:10F91000F80A82EEC81685EFD80685E0E806F104FD
:10F9200028F0E0910201F091030109958091C00057
:10F9300087FFEACF8091C600FF90EF90DF90CF90D5
:10F940000895CF930E947C7CC82F0E945D7CC136B5
:10F9500010F0C75503C0C03308F0C0538C2FCF91AF
:10F960000895CF930E94A17CC82F0E94A17C90E1B2
:10F97000C99F800D1124CF910895CF93C82F03C044
:10F980000E947C7CC150C111FBCFCF910895CF93D1
:10F99000C82F0E947C7C803251F484E10E945D7CFF
:10F9A0008C2F0E945D7C80E1CF910C945D7C8091D6
:10F9B00004018F5F80930401853031F4E0910201EE
:10F9C000F0910301CF910994CF9108950E947C7C1E
:10F9D000803231F484E10E945D7C80E10C945D7C96
:10F9E000809104018F5F80930401853029F4E091B8
:10F9F0000201F09103010994089515C0299827E4A4
:10FA000038EE91E0215030409040E1F700C0000016
:10FA1000299A27E438EE91E0215030409040E1F7F8
:10FA200000C0000081508111E9CF0895000083E1FA
:10FA30008093C4001092C50088E18093C10086E0E5
:10FA40008093C2005098589A219A83E00E94FD7CCE
:10FA5000DD24D3940E947C7C803309F442C081333E
:10FA6000E1F40E947C7C803209F098C184E10E941C
:10FA70005D7C81E40E945D7C86E50E945D7C82E580
:10FA80000E945D7C80E20E945D7C89E40E945D7C36
:10FA900083E50E945D7C80E578C1803439F40E9462
:10FAA0007C7C8638F0F00E947C7C1BC08134A1F401
:10FAB0000E947C7C803811F482E003C0813821F4FC
:10FAC00081E00E94C77CC6CF823811F480E1F9CF73
:10FAD0008839C9F583E0F5CF823431F484E10E949E
:10FAE000BD7C0E94E67CB6CF853411F485E0F7CF6B
:10FAF0008035B9F38235A9F3813599F3853549F419
:10FB00000E947C7C809306010E947C7C809307018C
:10FB1000E8CF8635D1F40E947C7C803389F40E9442
:10FB20007C7C0E947C7C182F0E947C7C111102C07E
:10FB30008EE1C7CF113011F486E9C3CF8AE0C1CF7F
:10FB400083E00E94BD7C80E0BCCF843609F0BEC05B
:10FB50000E947C7C809309020E947C7C8093080236
:10FB600080910C028E7F80930C020E947C7C8534F5
:10FB700029F480910C02816080930C0208E011E06E
:10FB8000780105C00E947C7CF70181937F01970179
:10FB900028503140809108029091090228173907B6
:10FBA00088F30E947C7C803209F0F8C020910C021E
:10FBB000809106019091070120FF20C0880F991FB6
:10FBC0000EC0F80161918F018091060190910701AB
:10FBD0000E94E47E80910601909107010196909326
:10FBE0000701809306019801285031408091080256
:10FBF000909109022817390720F366C02091070168
:10FC0000220F220B2D2120930B02880F991F909316
:10FC10000701809306018091080280FF09C080914E
:10FC200008029091090201969093090280930802BC
:10FC3000F894F999FECF1127E0910601F0910701A0
:10FC4000C8E0D1E08091080290910902103091F44F
:10FC50000091570001700130D9F303E00093570081
:10FC6000E8950091570001700130D9F301E100934C
:10FC70005700E895099019900091570001700130E4
:10FC8000D9F301E000935700E8951395103898F0E8
:10FC900011270091570001700130D9F305E000935E
:10FCA0005700E8950091570001700130D9F301E148
:10FCB00000935700E8953296029709F0C7CF1030AD
:10FCC00011F00296E5CF112484E15FC0843709F07A
:10FCD0004CC00E947C7C809309020E947C7C8093B3
:10FCE00008028091060190910701880F991F909357
:10FCF0000701809306010E947C7C90910C02853460
:10FD000011F4916001C09E7F90930C020E947C7C54
:10FD1000803209F09FCE84E10E945D7C00E010E01B
:10FD20001CC020910C02809106019091070120FFD8
:10FD300003C00E94DC7E04C021FD04C0FC0184914C
:10FD40000E945D7C8091060190910701019690933D
:10FD50000701809306010F5F1F4F80910802909169
:10FD6000090208171907E8F212C08537A1F40E94AA
:10FD70007C7C803299F484E10E945D7C8EE10E945B
:10FD80005D7C86E90E945D7C8AE00E945D7C80E16A
:10FD90000E945D7C5FCE863709F4D5CE8091040148
:10FDA0008F5F80930401853009F054CEE091020109
:10FDB000F091030109954ECEF999FECF92BD81BD18
:10FDC000F89A992780B50895262FF999FECF1FBA82
:10FDD00092BD81BD20BD0FB6F894FA9AF99A0FBE74
:08FDE00001960895F894FFCF8D
:02FDE800800099
:040000030000F80001
:00000001FF
