:107800000C942A3C0C94473C0C94473C0C94473C09
:107810000C94473C0C94473C0C94473C0C94473CDC
:107820000C94473C0C94473C0C94473C0C94473CCC
:107830000C94473C0C94473C0C94473C0C94473CBC
:107840000C94473C0C94473C0C94473C0C94473CAC
:107850000C94473C11241FBECFE5D8E0DEBFCDBF5E
:1078600010E0A0E6B0E0ECE3FEE702C005900D9268
:10787000A236B107D9F711E0A2E6B0E001C01D922F
:10788000AD36B107E1F70E94FA3C0C941C3F0C9412
:10789000003C982F92959F709A3010F0995A01C031
:1078A000905D8F708A3010F0895A01C0805D5D9BB9
:1078B000FECF9CB95D9BFECF8CB908955D9BFECF3A
:1078C0008CB90895EF92FF920F931F93EE24FF243B
:1078D000870113C00894E11CF11C011D111D81E4F6
:1078E000E81682E4F8068FE0080780E0180728F021
:1078F000E0916400F091650009955F9BEBCF8CB13E
:107900001F910F91FF90EF9008950E94623C5D9B44
:10791000FECF8CB9813610F087550895803308F07A
:10792000805308951F930E94853C182F0E94853C28
:107930001295107F810F1F9108951F93182F03C078
:107940000E94623C11501123D9F71F9108951F9393
:10795000182F0E94623C803261F45D9BFECF84E16F
:107960008CB95D9BFECF1CB95D9BFECF80E18CB9CD
:107970000CC0809163008F5F80936300853029F491
:10798000E0916400F091650009951F9108950E94AF
:10799000623C803249F45D9BFECF84E18CB95D9BF3
:1079A000FECF80E18CB90895809163008F5F809352
:1079B0006300853029F4E0916400F0916500099539
:1079C000089540E951E013C0C09A28EE33E0FA016F
:1079D0003197F1F721503040D1F7C09828EE33E0CD
:1079E000FA013197F1F721503040D1F781508823C7
:1079F00059F708952F923F924F925F926F927F9224
:107A00008F929F92AF92BF92CF92DF92EF92FF92AE
:107A10000F931F93CF93DF93000010BC83E389B9CA
:107A200088E18AB986E880BDB89A83E00E94E13C8B
:107A300014E1812EBEE12B2EA0E19A2EF2E57F2EDD
:107A4000E0E26E2E79E4572E63E5462E50E5352EA2
:107A50000E94623C803309F446C0813311F50E94D4
:107A6000623C803209F0C5C15D9BFECF8CB85D9B46
:107A7000FECF81E48CB95D9BFECF86E58CB95D9B22
:107A8000FECF7CB85D9BFECF6CB85D9BFECF5CB833
:107A90005D9BFECF4CB85D9BFECF3CB85D9BFECF9F
:107AA000A0C1803439F40E94623C8638E0F00E9424
:107AB000623C19C0813491F40E94623C803809F420
:107AC0003FC0813811F481E091C1823811F480E126
:107AD0008DC1883909F089C183E088C1823431F4CD
:107AE00084E10E949D3C0E94C73CB2CF853411F4D2
:107AF00085E0F7CF8035B9F38235A9F3813599F365
:107B0000853549F40E94623C809366000E94623C85
:107B100080936700E8CF8635C9F40E94623C8033C9
:107B200089F40E94623C0E94623C182F0E94623CD1
:107B3000112311F48EE15AC1113011F485E956C1B7
:107B400082E054C183E00E949D3C4FC1843609F01D
:107B5000CCC00E94623C809369010E94623C809389
:107B6000680180916C018E7F80936C010E94623C61
:107B7000853429F480916C01816080936C0100E070
:107B800010E008C00E94623CF801E859FF4F808372
:107B90000F5F1F4F809168019091690108171907C5
:107BA00088F30E94623C803209F023C180916C010D
:107BB00080FF2AC08091660090916700880F991F0E
:107BC000909367008093660000E010E015C0F80114
:107BD000E859FF4F809166009091670060810E9494
:107BE0000F3F809166009091670001969093670027
:107BF000809366000F5F1F4F80916801909169012B
:107C00000817190720F36BC0809167008823880F3D
:107C1000880B817080936B01809166009091670062
:107C2000880F991F90936700809366008091680188
:107C300080FF09C08091680190916901019690933D
:107C4000690180936801F894E199FECF1127E091D2
:107C50006600F0916700C8E6D0E0809168019091DD
:107C60006901103091F40091570001700130D9F38F
:107C700003E000935700E895009157000170013030
:107C8000D9F301E100935700E8950990199000910C
:107C9000570001700130D9F301E000935700E895D7
:107CA0001395103498F0112700915700017001309E
:107CB000D9F305E000935700E89500915700017053
:107CC0000130D9F301E100935700E895329602970D
:107CD00009F0C7CF103011F00296E5CF11245D9B5B
:107CE000FECF8CB85D9BFECF7CC0843709F063C0AB
:107CF0000E94623C809369010E94623C809368010B
:107D00008091660090916700880F991F909367009B
:107D1000809366000E94623C90916C01853411F45E
:107D2000916001C09E7F90936C010E94623C803202
:107D300009F08ECE5D9BFECF8CB8C0906801D090CC
:107D4000690180916C01AA24A394A82292E0B92E23
:107D5000B822EE24FF2429C0AA2089F000916600F1
:107D600010916700C8010E94073F5D9BFECF8CB950
:107D70000F5F1F4F109367000093660013C0BB2076
:107D800041F4E0916600F091670084915D9BFECF25
:107D90008CB980916600909167000196909367007E
:107DA000809366000894E11CF11CEC14FD04A0F221
:107DB0005D9BFECF16C08537B1F40E94623C8032D5
:107DC000C1F45D9BFECF8CB85D9BFECF2CB85D9B54
:107DD000FECF85E98CB95D9BFECF82E08CB95D9BBF
:107DE000FECF9CB835CE863721F480E00E94A73CB8
:107DF0002FCE809163008F5F80936300853009F000
:107E000027CEE0916400F0916500099521CEE199BB
:107E1000FECF9FBB8EBBE09A99278DB30895262F86
:107E2000E199FECF9FBB8EBB2DBB0FB6F894E29AB3
:0C7E3000E19A0FBE01960895F894FFCF70
:027E3C008000C4
:040000030000780081
:00000001FF
